{
  "contractName": "HelloWrdle",
  "abi": [
    {
      "inputs": [],
      "stateMutability": "nonpayable",
      "type": "constructor"
    },
    {
      "inputs": [],
      "name": "retrieve",
      "outputs": [
        {
          "internalType": "string",
          "name": "",
          "type": "string"
        }
      ],
      "stateMutability": "view",
      "type": "function"
    }
  ],
  "bytecode": "0x608060405234801561001057600080fd5b5060408051808201909152600a8082526968656c6c6f7772646c6560b01b602090920191825261004291600091610048565b5061011c565b828054610054906100e1565b90600052602060002090601f01602090048101928261007657600085556100bc565b82601f1061008f57805160ff19168380011785556100bc565b828001600101855582156100bc579182015b828111156100bc5782518255916020019190600101906100a1565b506100c89291506100cc565b5090565b5b808211156100c857600081556001016100cd565b600181811c908216806100f557607f821691505b6020821081141561011657634e487b7160e01b600052602260045260246000fd5b50919050565b6101a68061012b6000396000f3fe608060405234801561001057600080fd5b506004361061002b5760003560e01c80632e64cec114610030575b600080fd5b61003861004e565b60405161004591906100e0565b60405180910390f35b60606000805461005d90610135565b80601f016020809104026020016040519081016040528092919081815260200182805461008990610135565b80156100d65780601f106100ab576101008083540402835291602001916100d6565b820191906000526020600020905b8154815290600101906020018083116100b957829003601f168201915b5050505050905090565b600060208083528351808285015260005b8181101561010d578581018301518582016040015282016100f1565b8181111561011f576000604083870101525b50601f01601f1916929092016040019392505050565b600181811c9082168061014957607f821691505b6020821081141561016a57634e487b7160e01b600052602260045260246000fd5b5091905056fea2646970667358221220ecb507204bc5f7dfe9265ac7967b5be16721e8d109b244e1e73a3de4a664be4564736f6c634300080a0033",
  "immutableReferences": {},
  "source": "// SPDX-License-Identifier: GPL-3.0\r\npragma solidity >=0.7.0 <0.9.0;\r\n\r\ncontract HelloWrdle {\r\n\r\n    string number;\r\n\r\n    constructor() {\r\n        number = \"hellowrdle\";\r\n    }\r\n\r\n    function retrieve() public view returns (string memory){\r\n        return number;\r\n    }\r\n}",
  "sourcePath": "C:\\Code\\SolidityExperiments\\contracts\\01_Hellowrdle.sol",
  "compiler": {
    "name": "solc",
    "version": "0.8.10+commit.fc410830.Emscripten.clang"
  },
  "schemaVersion": "3.4.4",
  "updatedAt": "2022-02-02T12:43:03.120Z",
  "devdoc": {
    "kind": "dev",
    "methods": {},
    "version": 1
  },
  "userdoc": {
    "kind": "user",
    "methods": {},
    "version": 1
  }
}